:1000000000000320D90400002105000025050000A0
:100010001D0500001D0500001D050000000000007A
:10002000000000000000000000000000714400001B
:100030001D0500000000000061350000D135000002
:1000400035050000390500003D05000041050000B0
:1000500045050000490500004D0500005105000060
:1000600055050000590500005D0500006105000010
:1000700065050000690500006D05000071050000C0
:10008000750500001D0500001D0500001D05000090
:100090001D0500001D0500001D0500001D050000D8
:1000A000790500007D050000810500008505000040
:1000B000890500008D0500009105000095050000F0
:1000C000990500009D050000A1050000A5050000A0
:1000D000A9050000AD050000B10500001D050000E8
:1000E0001D0500001D0500001D0500001D05000088
:1000F0001D0500001D0500001D0500001D05000078
:100100001D0500001D0500001D0500001D05000067
:100110001D0500001D0500001D0500001D05000057
:100120001D0500001D0500001D0500001D05000047
:100130001D0500001D0500001D0500001D05000037
:100140001D050000B5050000B9050000BD05000053
:10015000C1050000C50500001D0500001D050000CB
:100160001D0500001D050000C9050000CD050000AB
:10017000D1050000D5050000D9050000DD0500000F
:10018000E1050000E5050000E90500006911000037
:1001900089110000A91100001D0500001D050000C7
:1001A0001D0500001D0500001D0500001D050000C7
:1001B0001D0500001D0500001D0500001D050000B7
:1001C0001D0500001D0500001D0500001D050000A7
:1001D0001D0500001D0500001D0500001D05000097
:1003F0001D0500001D0500001D050000FFFFFFFF9B
:10040000FFFFFFFFFFFFFFFFFFFFFFFFFEFFFFFFFD
:1004100010B5054C237833B9044B13B10448AFF33E
:1004200000800123237010BD7C00FF1F000000002E
:10043000985E000008B5064B1BB106480649AFF3AD
:1004400000800648036813B1054B03B1984708BD07
:1004500000000000985E00008000FF1F7800FF1F72
:1004600000000000154B002B08BF134B9D46A3F561
:10047000803A00218B460F461348144A121A04F0A2
:1004800017FC0F4B002B00D098470E4B002B00D0D1
:1004900098470020002104000D000D48002802D0DC
:1004A0000C48AFF3008004F0DDFB2000290003F0CE
:1004B0002FFD04F0C3FB00BF000008000000032074
:1004C00000000000000000007C00FF1F002CFF1F48
:1004D000000000000000000072B6094809490160F0
:1004E0000948804709490A4A0A4B9A42BEBF51F857
:1004F000040B42F8040BF8E762B607488047000097
:1005000008ED00E000000000D53E0000C05E0000E5
:100510000000FF1F7C00FF1F65040000FFF7FEBF07
:1005200035480047354800473548004735480047BB
:1005300035480047354800473548004735480047AB
:10054000354800473548004735480047354800479B
:10055000354800473548004735480047354800478B
:10056000354800473548004735480047354800477B
:10057000354800473548004735480047354800476B
:10058000354800473548004735480047354800475B
:10059000354800473548004735480047354800474B
:1005A000354800473548004735480047354800473B
:1005B000354800473548004735480047354800472B
:1005C000354800473548004735480047354800471B
:1005D0003448004733480047324800473148004715
:1005E000304800473048004730480047304800470F
:1005F000304800473048004721050000250500002D
:100600007144000061350000D1350000C9110000BF
:10061000DD110000F11100000512000019120000A8
:100620002D12000041120000551200006912000056
:100630007D12000091120000A5120000B912000006
:10064000CD120000E1120000F51200001D050000AF
:10065000DD0F0000F90F0000A1140000DD14000000
:10066000550F0000990F00001D0500001D0A000035
:100670001D050000490A00001D050000750A000064
:100680001D050000A10A00001D050000191500004D
:10069000CD0A00001D050000F90A00001D0500003C
:1006A0001510000025110000050B00001D050000BD
:1006B0001D0500001D0500001D05000080B582B06D
:1006C00000AF01F095FD786004484FF4E13101225C
:1006D0007B6803F0C1FF0837BD4680BD00A006401F
:1006E00080B400AF054B03F5825304334FF0927290
:1006F0001A60BD465DF8047B704700BF007004407F
:1007000080B483B000AF7860034B7A681A600C370E
:10071000BD465DF8047B7047482AFF1F80B584B052
:1007200000AF134A07F10C031188927819809A7070
:10073000104A3B1D92E8030083E80300FFF7D0FF57
:1007400000F01EF807F10C03002000211A4600F00B
:1007500023FF02200021002201F060F83B1D184613
:1007600000F052FF044B054A1A601037BD4680BDA9
:10077000604E0000644E00000000FF1F000E2707BF
:1007800080B582B000AF084A3B4692E8030083E898
:1007900003003B46184601F009F90448FFF7B0FF93
:1007A0000837BD4680BD00BF6C4E000080F0FA02E5
:1007B00080B485B000AF78607B681B0C03F1804388
:1007C00003F58E23FB60FB68FA6811687A6892B2C1
:1007D000012000FA02F20A431A601437BD465DF8A0
:1007E000047B704780B485B000AFF860B9601346F1
:1007F000FB71FB68BA6853F8223023F4E062FB799E
:100800001B0203F4E06342EA0301FB68BA6843F8A1
:1008100022101437BD465DF8047B704780B483B066
:1008200000AF786039607B683A685A600C37BD4623
:100830005DF8047B704700BF80B483B000AF786080
:1008400039607B683A689A600C37BD465DF8047B76
:10085000704700BF80B582B000AF294A3B1D1288A7
:100860001A802848FFF7A4FF2748FFF7A1FF3B1D88
:10087000264815211A4600F0F5FB3B1D234816219A
:100880001A4600F0EFFB3B1D21481A211A4600F0E2
:10089000E9FB1E484FF40011FFF7C0FF1B484FF45F
:1008A0008001FFF7BBFF1A484FF08061FFF7C4FFDC
:1008B000184816210122FFF795FF17481A21012237
:1008C000FFF790FF134815210122FFF78BFF114816
:1008D00010210322FFF786FF0E4811210322FFF7A4
:1008E00081FF0E490D4B03F5805310331B6823F035
:1008F000030201F5805310331A600837BD4680BDEE
:10090000744E00000A0038100D00381040F00F40FF
:1009100000F10F4000A0044000D0044000700440EB
:1009200080B485B000AFF860B9607A600CE0FB6815
:100930001B79DBB2DBB25BB2002BF8DABB685A1C66
:10094000BA601A78FB68DA717B685A1E7A60002BED
:10095000EDD11437BD465DF8047B704780B586B095
:1009600000AFF860B9607A60BB68002B36D12048D0
:100970004FF40F711F4A204B00F0ECFDF86800F0B7
:10098000C5FA78617B6903F00803002B02D040F2BE
:10099000F13329E07B6903F00403002B02D040F21D
:1009A000F23321E07B6903F00203002B02D040F216
:1009B000F33319E07B6903F00103002B02D04FF4FD
:1009C0007D7311E0FB689B7DDBB2002BD6D0BB684A
:1009D0005A1CBA60FA68D279D2B21A707B685A1E71
:1009E0007A60002BEED1002318461837BD4680BD33
:1009F000784E00007C5E0000904E000080B500AF95
:100A0000034B1B68034A126803481146984780BD90
:100A1000002BFF1FE82AFF1F00A0064080B500AF93
:100A2000FFF7ECFF80BD00BF80B500AF034B1B6834
:100A3000034A526803481146984780BD002BFF1FA8
:100A4000E82AFF1F00B0064080B500AFFFF7ECFFBB
:100A500080BD00BF80B500AF034B1B68034A92689E
:100A600003481146984780BD002BFF1FE82AFF1F4F
:100A700000C0064080B500AFFFF7ECFF80BD00BFAF
:100A800080B500AF034B1B68034AD2680348114688
:100A9000984780BD002BFF1FE82AFF1F00D00640AB
:100AA00080B500AFFFF7ECFF80BD00BF80B500AFA1
:100AB000034B1B68034A126903481146984780BDDF
:100AC000002BFF1FE82AFF1F00A00E4080B500AFDB
:100AD000FFF7ECFF80BD00BF80B500AF034B1B6884
:100AE000034A526903481146984780BD002BFF1FF7
:100AF000E82AFF1F00B00E4080B500AFFFF7ECFF03
:100B000080BD00BF80B500AF094B1B68002B06D12C
:100B100008484FF4A961084A084B00F01BFD084B38
:100B20001B68034A126807481146984780BD00BFFA
:100B3000E02AFF1FFC4E0000FC5D0000E8500000B2
:100B4000E42AFF1F00100B4080B485B000AF78602E
:100B50007B681B0C03F1804303F58E23FB60FB686D
:100B6000FA6811687A6892B2012000FA02F20A4328
:100B70001A601437BD465DF8047B704780B584B0B9
:100B800000AF78600623BB600023FB6009E00E4BDA
:100B9000FA6853F822207B689A4206D0FB6801333A
:100BA000FB60FA68BB689A42F1D3FA68BB689A4264
:100BB00005D30648A921064A064B00F0CBFCFB688A
:100BC00018461037BD4680BD145E0000005100007D
:100BD000445E00001851000080B588B000AFF86096
:100BE000B9607A60BB68002B05D1A348D421A34A21
:100BF000A34B00F0AFFCBB681B68002B05D19E48DF
:100C0000D5219E4A9F4B00F0A5FCFA689E4B9A4264
:100C100020D0FA689D4B9A421AD0FA689C4B9A42AF
:100C200014D0FA689B4B9A420ED0FA689A4B9A42BB
:100C300008D0FA68994B9A4201D101230BE04FF09A
:100C4000FF3308E0012306E0012304E0012302E072
:100C5000082300E00823BA689279934205DA8648AF
:100C6000D721864A8E4B00F075FCFA68864B9A4273
:100C700020D0FA68854B9A421AD0FA68844B9A427F
:100C800014D0FA68834B9A420ED0FA68824B9A428B
:100C900008D0FA68814B9A4201D101230BE04FF052
:100CA000FF3308E0012306E0012304E0012302E012
:100CB000082300E00823BA68D279934205DA6E4827
:100CC000D8216E4A774B00F045FC0023FB830023BC
:100CD0007B770023BB61BB681B681B017A68B2FB92
:100CE000F3F3FB83FB8B002B01D10123FB83002358
:100CF0007B617B685A00BB681B68B2FBF3F39AB256
:100D0000FB8B1946C902CB1A5B019BB213447B8251
:100D10007B685A00FB8B59017B8A0B44B2FBF3F3CF
:100D20007B61BB681A687B699A4204D2BB681B6806
:100D30007A69D31A03E0BB681A687B69D31ABB616E
:100D4000BB681A68584BA3FB02135A0913465B0091
:100D50001A44BB699A4202D240F2F53387E0F86840
:100D6000FFF70CFF0246514B53F822301846FFF7AD
:100D7000EBFEFB68DB78DBB223F00C03DAB2FB6836
:100D8000DA70FB681B78DBB223F01F03DAB2FB8B4F
:100D90001B0A9BB2DBB21343DAB2FB681A70FB8BFF
:100DA000DAB2FB685A70FB689B7ADBB223F01F0350
:100DB000DAB27B8ADBB203F01F03DBB21343DAB291
:100DC000FB689A72FB689B78DBB223F013037B7796
:100DD000BB681B79002B07D0BB681A797B7F134354
:100DE000DBB243F010037B77FB687A7F9A70FB6875
:100DF0001B78DBB223F02003DAB2BB685B795B01BE
:100E0000DBB203F02003DBB21343DAB2FB681A70E3
:100E1000BB689A79FB68DA74BB68DA79FB685A7543
:100E2000FB681B7CDBB263F07703DAB2FB681A74F1
:100E3000FB685B7CDBB263F03F03DAB2FB685A7499
:100E4000FB68DB787B77BB681B7A002B03D07B7F4A
:100E500043F008037B77BB685B7A002B03D07B7F72
:100E600043F004037B77FB687A7FDA70002318462F
:100E70002037BD4680BD00BF00510000585E000015
:100E8000684F00003451000000A0064000B006404A
:100E900000C0064000D0064000A00E4000B00E404A
:100EA0004C5100008C5100001F85EB512C5E00005E
:100EB00080B582B000AF78607B68002B06D1104807
:100EC00040F25D110F4A104B00F044FB7B684FF479
:100ED000E1321A607B6800221A717B6800225A7125
:100EE0007B6800229A717B680122DA717B6800229C
:100EF0001A727B6800225A720837BD4680BD00BF57
:100F000000510000645E0000684F000080B485B0AE
:100F100000AF78607B681B79DBB21A467B685B792F
:100F2000DBB21B021343FB607B681B7BDBB21B0441
:100F3000FA681343FB607B689B7CDBB21B06FA6894
:100F40001343FB60FB6818461437BD465DF8047B0D
:100F5000704700BF80B500AF094B1B68002B06D15E
:100F6000084840F21A41084A084B00F0F3FA084BCF
:100F70001B68034A126807481146984780BD00BFA6
:100F8000D02AFF1FDC510000C45D0000FC510000AE
:100F9000D82AFF1F00F0024080B500AF094B5B6804
:100FA000002B06D108484FF48461084A084B00F032
:100FB000D1FA084B1B68034A526807481146984704
:100FC00080BD00BFD02AFF1FDC510000E05D0000A3
:100FD00010520000DC2AFF1F00F0024080B500AF75
:100FE000034B1B680348194600F074F880BD00BF2E
:100FF000BC2AFF1F0060064080B500AF034B5B6852
:101000000348194600F066F880BD00BFBC2AFF1FE8
:101010000070064080B500AF034B9B68034819463B
:1010200000F058F880BD00BFBC2AFF1F00600E40D2
:1010300080B485B000AFF860B9601346FB71FB79EE
:10104000002B05D1BB6801229A40FB689A6004E03E
:10105000BB6801229A40FB685A601437BD465DF8B0
:10106000047B704780B584B000AFF860B9607A60E7
:101070007B68002B05D114484B21144A144B00F017
:1010800069FA7B681B78002B0AD1FB685A69BB6838
:10109000012101FA03F3DB431A40FB685A610FE0B8
:1010A0007B685B78F868B9681A46FFF7C1FFFB6890
:1010B0005A69BB68012101FA03F31A43FB685A61BC
:1010C0001037BD4680BD00BFBC520000B45D0000BB
:1010D0003C52000080B582B000AF786039607B6818
:1010E000DB78DBB203F01003002B06D17B689B7822
:1010F000DBB203F02003002B05D0084B1B68786897
:101100003968984704E0064B1B6878683968984747
:10111000BFF34F8F0837BD4680BD00BFC82AFF1FF1
:10112000CC2AFF1F80B500AF094B1B68002B06D1EE
:10113000084840F21F51084A084B00F00BFA084BD0
:101140001B68034A126807481146984780BD00BFD4
:10115000B42AFF1F685300009C5D00001C5500006E
:10116000B82AFF1F0040024080B500AF034B1B6848
:10117000034A126803481146984780BDA82AFF1FFA
:10118000A42AFF1F00000C4080B500AF034B1B6872
:10119000034A126803481146984780BDAC2AFF1FD6
:1011A000A42AFF1F00000C4080B500AF034B1B6852
:1011B000034A126803481146984780BDB02AFF1FB2
:1011C000A42AFF1F00000C4080B500AF024B1B6833
:1011D000184600F099F880BD642AFF1F80B500AF63
:1011E000024B5B68184600F08FF880BD642AFF1F31
:1011F00080B500AF024B9B68184600F085F880BDB3
:10120000642AFF1F80B500AF024BDB68184600F070
:101210007BF880BD642AFF1F80B500AF024B1B69BD
:10122000184600F071F880BD642AFF1F80B500AF3A
:10123000024B5B69184600F067F880BD642AFF1F07
:1012400080B500AF024B9B69184600F05DF880BD89
:10125000642AFF1F80B500AF024BDB69184600F01F
:1012600053F880BD642AFF1F80B500AF024B1B6A94
:10127000184600F049F880BD642AFF1F80B500AF12
:10128000024B5B6A184600F03FF880BD642AFF1FDE
:1012900080B500AF024B9B6A184600F035F880BD60
:1012A000642AFF1F80B500AF024BDB6A184600F0CE
:1012B0002BF880BD642AFF1F80B500AF024B1B6B6B
:1012C000184600F021F880BD642AFF1F80B500AFEA
:1012D000024B5B6B184600F017F880BD642AFF1FB5
:1012E00080B500AF024B9B6B184600F00DF880BD37
:1012F000642AFF1F80B500AF024BDB6B184600F07D
:1013000003F880BD642AFF1F90B589B000AF7860F4
:101310007B68002B06D1504840F23A314F4A504B7F
:1013200000F018F97B689B687A68127CDA777B6832
:10133000DB68002B0DD17B681B68002B09D07B6814
:101340001C687B685B687868194601220023A04707
:101350007EE07B689A687B681B7C5B01134403F525
:10136000805318331B687B617B689A687B681B7CA1
:101370005B01134403F5805318339B889BB203F041
:101380008003002B0CBF00230123FB747B68DB6808
:101390007A69D31A7B617B695B09FB60FB7C002B5C
:1013A00002D0FB68FB760EE0FB68002B04D0FB68E4
:1013B000DBB2013BDBB205E07B681B7DDBB2DBB25D
:1013C000013BDBB2FB76FA7E7B685B7CDBB25BB217
:1013D0009A4212D17B68DB7CDAB27B681B7DDBB280
:1013E00052B25BB29A4205D17B68DB7CDBB25BB266
:1013F000FB6113E00023FB6110E0FA7E7B685B7CFD
:10140000DBB25BB2D31AFB61FB69002B06DA7B68A7
:101410001B7DDBB25BB2FA691344FB61FA7E7B6829
:101420005A747B68DB7CDBB2DAB2FB69DBB2D31ABD
:10143000DBB2DAB27B68DA747B681B68002B07D0FA
:101440007B681C687B685968FB69FA7C7868A047F0
:101450002437BD4690BD00BF645500008C5D000080
:101460003856000080B582B000AF78603960786887
:1014700000F084F80346002B05D0074B1B68786802
:101480003968984704E0054B1B68786839689847C5
:101490000837BD4680BD00BF5C2AFF1F602AFF1FC2
:1014A00080B500AF084B1B68002B06D1074840F2FF
:1014B0005761074A074B00F04DF8034B1B6806487D
:1014C0001946FFF7CFFF80BD502AFF1F8457000049
:1014D000445D0000A457000000C0024080B500AF8A
:1014E000084B5B68002B06D1074840F25F61074A52
:1014F000074B00F02FF8034B5B6806481946FFF7CF
:10150000B1FF80BD502AFF1F845700005C5D0000C2
:10151000B457000000D0024080B500AF084B9B6874
:10152000002B06D1074840F26761074A074B00F0DD
:1015300011F8034B9B6806481946FFF793FF80BDDF
:10154000502AFF1F84570000745D0000C45700003C
:1015500000C00A4080B586B002AFF860B9607A601A
:101560003B607B68009304483968FA68BB6803F005
:10157000B9F800BEFDE700BFD458000080B483B0C6
:1015800000AF78607B681B68DB0FDBB218460C3756
:10159000BD465DF8047B704780B582B000AF0B4656
:1015A0003A600246FA71BB713B68002B06D11248C3
:1015B00040F25C61114A124BFFF7CCFFFB791846F1
:1015C00000F0E4F8BB791846396800F033FA0D4BA7
:1015D0000C4A1278D2B202F03F02D2B21A70094B12
:1015E0009B79DBB203F00C039B08032BF7D100239C
:1015F00018460837BD4680BD145A0000305D000013
:101600002C5A00000040064080B582B000AF7860E0
:10161000094B7A68526803F5825304331A607B6879
:101620001B78184600F08CFC7B685B78184600F04D
:1016300071FC0837BD4680BD0070044080B582B0A3
:1016400000AF164B9B79DBB203F00C039B083B60A9
:101650003B68032B1AD801A252F823F0751600003C
:101660007D160000851600006D16000000F052F88F
:1016700078600DE000F014F8786009E000F05AFDA1
:10168000786005E000F0ACFC786001E000237B604E
:101690007B6818460837BD4680BD00BF0040064045
:1016A00080B582B000AF194B5B78DBB203F0020368
:1016B000002B06D1154B9B79DBB203F02003002BE6
:1016C00001D000231DE000F057FD78607B68002BFF
:1016D00001D17B6815E00D4BDB78DBB203F06003D2
:1016E0005B09FB70094BDB78DBB2DB09BB70F97877
:1016F000BA78074B49000A4433F812307A6802FB83
:1017000003F318460837BD4680BD00BF00400640C1
:10171000E45C000080B582B000AF184B9B79DBB26F
:1017200003F04003002B01D1002322E000F03AFD3A
:1017300078607B68002B06D1114840F27D21114A68
:10174000114BFFF707FF0D4B1B79DBB203F01F03B3
:1017500001337A68B2FBF3F37B60084B5B79DBB251
:1017600003F01F0303F118027B6802FB03F37B60A5
:101770007B6818460837BD4680BD00BF0040064064
:10178000B45B0000F45C0000CC5B000080B485B06A
:1017900000AF0346FB71204B1B7BDBB203F003025F
:1017A000FB799A4202D00123FB7301E00023FB7313
:1017B000194B194A127BD2B222F00302D1B2FA7944
:1017C00002F00302D2B20A43D2B21A73FB79002BA1
:1017D0000DD1114B5B78DBB203F00403002B06D074
:1017E0000D4B9B79DBB203F00203002BF8D0FB7B9F
:1017F000002B09D040F2DC53BB6000E000BFBB68A7
:101800005A1EBA60002BF9D1002318461437BD4682
:101810005DF8047B704700BF0040064080B485B08F
:1018200000AF13460246FA710A46BA717B713A4B11
:101830009B79DBB203F00C039B08FB60364B9B7972
:10184000DBB203F00103FB72334B1B7ADBB203F014
:101850000E035B08BB727A79BB7A9A422BD0FB7A73
:10186000012B18D1FB68012B06D02B4B1B78DBB268
:1018700003F00203002B0ED0274B274A5278D2B236
:1018800022F00102D2B25A70234B9B79DBB203F0F3
:101890000103002BF8D1204B1F4A127AD2B222F05A
:1018A0002F02D1B27A795200D2B202F00E02D2B235
:1018B0000A43D2B21A72184B174A5278D2B222F0A7
:1018C0000102D1B2BA7902F00102D2B20A43D2B215
:1018D0005A70114B104A1278D2B222F00302D1B2E0
:1018E000FA790A43D2B21A70FB68012B04D0FB7953
:1018F00003F00203002B07D0074B9B79DBB203F008
:101900000102BB799A42F7D1002318461437BD462D
:101910005DF8047B704700BF0040064080B584B08E
:1019200000AF78607B68002B06D11C4840F247313D
:101930001B4A1C4BFFF70EFE0023FB737B685B7892
:1019400003F01F03DAB2FB7B1343FB73164BFA7BE6
:101950001A71154B144A5279D2B222F01F02D1B239
:101960007A68927802F01F02D2B20A43D2B25A7158
:101970000D4B0D4A1279D1B27A6812780A43D2B26D
:1019800042F04002D2B21A71074B9B79DBB203F0EE
:101990004003002BF8D01037BD4680BDB45B00007B
:1019A000085D0000D85B00000040064080B584B0B0
:1019B00000AF78607B681B68184600F0FBFB0346AD
:1019C000FB737B681B791948194600F0EFFA7B68B6
:1019D00006331648194600F0CFFA154B144A5278D0
:1019E000D2B222F03C02D1B2FA7B1201D2B202F0A2
:1019F0003002D2B20A43D1B27A6852790A43D2B2E3
:101A00005A707B685B79002B0DD0084B1B78DBB2DA
:101A1000DBB25BB2002B06DA054B9B79DBB203F03D
:101A20000203002BF8D01037BD4680BD00500640A1
:101A30000040064080B582B000AF03463960FB71BC
:101A40003B68002B06D1234840F2BD51224A234B6C
:101A5000FFF780FD224B224A5278D2B222F00202D6
:101A6000D2B25A701E4B1E4A1278D2B202F03B021A
:101A7000D2B262F07F02D2B21A70194B9B79DBB2FC
:101A800003F01C03082BF8D1154B154A5279D2B23A
:101A900022F04002D2B25A71114B9B79DBB203F0B3
:101AA0002003002BF8D13868FFF738FF0C4B0C4AA5
:101AB0005279D2B242F04002D2B25A71084B9B79AD
:101AC000DBB203F02003002BF8D0002318460837C0
:101AD000BD4680BDB45B00001C5D0000D85B00000B
:101AE0000040064080B584B000AF7860396001F0F6
:101AF00025FC07F10803184600F066F8F860BB689B
:101B0000002B31D13B68002B0AD17A68FB689A42DE
:101B100006D801F021FC7868F96801F095F825E015
:101B20003B68002B08D0134B1B681B68002B14BFAD
:101B300000230123DBB23B600F4B1A687968FB6816
:101B4000CB1A104619463A6801F004FA01F004FC79
:101B50000346002B0AD1094B4FF080521A60BFF3A5
:101B60004F8FBFF36F8F01E001F0F6FB1037BD46DA
:101B700080BD00BF382AFF1F3C2AFF1F04ED00E094
:101B800080B485B000AF78600E4B1B681B68002BDB
:101B900014BF00230123DBB21A467B681A607B68FE
:101BA0001B68002B05D1074B1B68DB681B68FB60BB
:101BB00001E00023FB60FB6818461437BD465DF862
:101BC000047B7047342AFF1F80B584B000AF786073
:101BD00001F05EFCF8600B4B1B68FA689A4205D274
:101BE00000F002F97B6801221A6002E07B680022A3
:101BF0001A60044BFA681A60FB6818461037BD4635
:101C000080BD00BF442AFF1F80B586B000AFF860DA
:101C1000B9607A603B6000237B61FB68BA685A60F8
:101C2000FB68FA681A61BA687B689A4212D87A68C7
:101C30003B68D21AFB689B699A4202D301237B61FD
:101C40001BE0104B1A68FB6804331046194601F07C
:101C500075FD12E07A683B689A4206D2BA683B6822
:101C60009A4202D301237B6107E0074B1A68FB68A5
:101C700004331046194601F061FD7B691846183798
:101C8000BD4680BD382AFF1F342AFF1F80B58EB0A5
:101C900002AF97E07B68002B18DA3B1D0433FB6230
:101CA000FB6A002B09D14FF0500383F31188BFF377
:101CB0006F8FBFF34F8FFB61FEE7FB6A1B68FA6A09
:101CC0005168FA6A92680846114698477B68002B6B
:101CD00078DBFB68BB62BB6A5B69002B04D0BB6A24
:101CE0000433184601F062FD3B461846FFF76CFFCF
:101CF00078627B68092B65D801A252F823F000BFF7
:101D0000291D0000291D0000291D0000C51D00001F
:101D1000871D0000BF1D0000291D0000291D0000B7
:101D2000C51D0000871D0000BA68BB6A9B691A4484
:101D3000BB68B86A11467A6AFFF766FF0346002B54
:101D400040D0BB6A5B6AB86A9847BB6ADB69012B03
:101D500038D1BA68BB6A9B69134400220092B86A02
:101D600000211A46002300F01DFF38623B6A002B59
:101D700028D14FF0500383F31188BFF36F8FBFF367
:101D80004F8FBB61FEE7BA68BB6A9A61BB6A9B6909
:101D9000002B09D14FF0500383F31188BFF36F8FED
:101DA000BFF34F8F7B61FEE7BB6A9A697B6A13447E
:101DB000B86A19467A6A7B6AFFF726FF02E0B86ABA
:101DC00002F0D2F9074B1A683B1D10461946002253
:101DD000002301F069FF0346002B7FF45BAF30372F
:101DE000BD4680BD3C2AFF1F80B588B002AF44E0ED
:101DF0002B4B1B68DB681B687B61294B1B68DB680E
:101E0000DB683B613B690433184601F0CFFC3B695A
:101E10005B6A386998473B69DB69012B2DD13B69C7
:101E20009A697B691344FB60FA687B699A420ED910
:101E30003B69FA685A603B693A691A61184B1A683B
:101E40003B6904331046194601F078FC15E0002385
:101E50000093386900217A69002300F0A3FEB8607E
:101E6000BB68002B09D14FF0500383F31188BFF3F7
:101E70006F8FBFF34F8F3B60FEE7094B1B681B68FA
:101E8000002BB5D1064B1B687B60064B1A68044BD0
:101E90001A60044B7A681A601837BD4680BD00BFCF
:101EA000342AFF1F382AFF1F80B500AF01F000FB66
:101EB000124B1B68002B1DD1114801F0EFFB11489C
:101EC00001F0ECFB104B0E4A1A60104B0D4A1A60E1
:101ED0000A201021002201F0FBFC0246074B1A6089
:101EE000064B1B68002B05D0044B1B68184608499D
:101EF00001F008F801F00AFB80BD00BF3C2AFF1F7B
:101F00000C2AFF1F202AFF1F342AFF1F382AFF1F19
:101F1000E05B000080B483B000AF7860074B074AF5
:101F2000126822F440217A68920402F440220A43A3
:101F30001A600C37BD465DF8047B704700700440A2
:101F400080B483B000AF78600A490A4B03F5805330
:101F500004331B6823F440327B681B0403F44033D2
:101F60001A4301F5805304331A600C37BD465DF8FF
:101F7000047B70470070044080B485B000AF786087
:101F800039607B681B78FB73FB7B03F05F03FB739B
:101F90003B681A78FB7B1343FB737B68FA7B1A70F0
:101FA0001437BD465DF8047B704700BF80B485B030
:101FB00000AF78600B46FB707B681B78FB73FB7B84
:101FC00023F00F03FB73FA7BFB781343FB737B68EF
:101FD000FA7B1A701437BD465DF8047B704700BF6A
:101FE00080B582B000AF194B1B7BDBB203F003035B
:101FF000012B12D0012B02D3022B1CD01EE0144B5C
:102000001B68002B05D11348D421134A134BFFF74B
:10201000A1FA0F4B1B687B6012E0114B1B68002B71
:1020200005D10C48D9210C4A0E4BFFF793FA0C4B03
:102030001B687B6004E00C4B7B6001E000237B604D
:102040007B6818460837BD4680BD00BF004006408B
:10205000482AFF1F585C0000CC5C0000705C000048
:102060004C2AFF1F7C5C0000006CDC0280B582B053
:1020700000AFFFF7B5FF78607B68002B01D17B686C
:102080004DE0294B1B78DBB203F03803DB08FB7013
:10209000FB787A6822FA03F37B60234B5B78DBB230
:1020A00003F030031B09BB701F4B1B7BDBB203F03B
:1020B00003037B70BB78002B02D07B78002B02D00F
:1020C0007B78022B2AD1FB78072B25D801A151F868
:1020D00023F000BFF5200000F5200000F5200000EF
:1020E000F5200000F5200000F5200000FD20000094
:1020F0000B2100007B685B097B600FE07A680B4B6B
:10210000A3FB02131B097B6008E07A68084BA3FB62
:102110000213DB087B6001E000237B607B681846CC
:102120000837BD4680BD00BF00400640CDCCCCCCBA
:10213000ABAAAAAA80B400AF0C4B9B79DBB203F028
:102140000103002B02D10A4B1B6809E0094B1A68F6
:10215000064B1B7ADBB203F00E035B0822FA03F393
:102160001846BD465DF8047B704700BF004006403E
:102170001000FF1F1400FF1F80B500AF074B9B79B5
:10218000DBB203F010031B09002B03D1FFF76EFF36
:10219000034601E0024B1B68184680BD0040064024
:1021A0001000FF1F80B500AFFFF71AFF0346184667
:1021B00080BD00BF80B485B000AF78607A6849F612
:1021C00097039A4202D80023FB7308E07A68074B12
:1021D0009A4202D80123FB7301E00223FB73FB7BCD
:1021E00018461437BD465DF8047B704700127A002C
:1021F00080B500AFFFF722FA0246054B03F5825384
:1022000004331B681B0F0133B2FBF3F3184680BD88
:102210000070044080B586B000AF00237B614A4B5C
:102220001B68002B7ED1494B1B6801333B61474B38
:102230003A691A603B69002B1FD1454B1B681B682C
:10224000002B09D04FF0500383F31188BFF36F8F39
:10225000BFF34F8F3B60FEE73D4B1B68FB603D4B80
:102260001A683B4B1A603B4BFA681A603A4B1B6882
:102270005A1C394B1A6000F0B1FA384B1B683A69A6
:102280009A4255D300E000BF314B1B681B68002BFE
:1022900001D1012300E00023002B04D02F4B4FF08D
:1022A000FF321A6044E02A4B1B68DB68DB68BB60C6
:1022B000BB685B687B603A697B689A4203D2274BB4
:1022C0007A681A6034E0BB680433184601F06EFA8D
:1022D000BB689B6A002B04D0BB681833184601F01A
:1022E00065FABB68DB6A01229A401D4B1B681A43E2
:1022F0001B4B1A60BB68DA6A13469B0013449B00B1
:10230000184A1A44BB6804331046194601F0F2F922
:10231000BB68DA6A144B1B68DB6A9A42B3D30123A9
:102320007B61B1E7114B1B685A1C104B1A6000E02F
:1023300000BF0F4B1B68002B01D001237B617B6921
:1023400018461837BD4680BD082AFF1FE429FF1F25
:102350009829FF1F9C29FF1FF829FF1F002AFF1F34
:10236000E829FF1F0C29FF1F0829FF1FF029FF1F65
:10237000F429FF1F80B487B000AF264B1B68002BE9
:1023800003D0254B01221A603EE0234B00221A6045
:10239000224B1B68FB60FB68B3FA83F3FB72FB7A8A
:1023A000C3F11F037B611E497A6913469B001344E6
:1023B0009B000B441B68002B09D14FF0500383F3A3
:1023C0001188BFF36F8FBFF34F8F7B60FEE77A6991
:1023D00013469B0013449B00114A13443B613B6925
:1023E0005B685A683B695A603B695A683B690833C5
:1023F0009A4204D13B695B685A683B695A603B6901
:102400005B68DA68074B1A601C37BD465DF8047BD1
:10241000704700BF082AFF1FF429FF1FE829FF1F8C
:102420000C29FF1F0829FF1F80B584B000AF78601A
:1024300039607B68002B09D14FF0500383F311887A
:10244000BFF36F8FBFF34F8FFB60FEE7064B1B6838
:1024500018337868194601F071F93868012100F0E5
:102460000DFB1037BD4680BD0829FF1F80B586B023
:1024700000AFF860B9607A60FB68002B09D14FF0BB
:10248000500383F31188BFF36F8FBFF34F8F7B61CE
:10249000FEE70A4B1B681833F868194601F02AF961
:1024A0007B68002B02D04FF0FF33BB60B8687968BF
:1024B00000F0E4FA1837BD4680BD00BF0829FF1FB1
:1024C00080B586B000AF78607B68DB68DB683B6115
:1024D0003B69002B09D14FF0500383F31188BFF300
:1024E0006F8FBFF34F8FFB60FEE73B6918331846D1
:1024F00001F05CF91D4B1B68002B1CD13B690433B8
:10250000184601F053F93B69DB6A01229A40184BE7
:102510001B681A43164B1A603B69DA6A13469B0024
:1025200013449B00134A1A443B690433104619466E
:1025300001F0E0F805E03B6918330F48194601F057
:10254000D9F83B69DA6A0D4B1B68DB6A9A4205D9F8
:1025500001237B610A4B01221A6001E000237B61A9
:102560007B6918461837BD4680BD00BF082AFF1F8B
:10257000E829FF1F0C29FF1FA029FF1F0829FF1FA3
:10258000F429FF1F80B485B000AF78607B68002B12
:1025900009D14FF0500383F31188BFF36F8FBFF35E
:1025A0004F8FFB60FEE7064B1A687B681A60054B8D
:1025B0001A687B685A601437BD465DF8047B704723
:1025C000F829FF1FE429FF1F80B586B000AF7860AF
:1025D00039607B68002B09D14FF0500383F31188D9
:1025E000BFF36F8FBFF34F8FFB60FEE73B68002B9D
:1025F00009D14FF0500383F31188BFF36F8FBFF3FE
:102600004F8FBB60FEE700F053FF1C4B1B683B6124
:102610003B681B68B3F1FF3F02D100237B6126E0DA
:102620007B681A68164B1B689A4207D07B685A6809
:102630003B699A4202D801237B6118E07B685B68A2
:102640003A69D21A3B681B689A420ED23B681A68F4
:102650007B6859683B69CB1A1A443B681A607868F2
:10266000FFF790FF00237B6101E001237B6100F015
:102670004DFF7B6918461837BD4680BDE429FF1F12
:10268000F829FF1F80B400AF034B01221A60BD463A
:102690005DF8047B704700BFF429FF1F80B582B04E
:1026A00000AF786000F050F8064B1B68012BF9D999
:1026B000054B4FF080521A60BFF34F8FBFF36F8FFF
:1026C000F0E700BF0C29FF1F04ED00E080B582B0E9
:1026D00000AF00237B600CE07A6813469B00134434
:1026E0009B00114A1344184600F0D8FF7B68013361
:1026F0007B607B68042BEFD90C4800F0CFFF0C48BF
:1027000000F0CCFF0B4800F0C9FF0B4800F0C6FFFB
:102710000A4800F0C3FF0A4B044A1A60094B044AF6
:102720001A600837BD4680BD0C29FF1F7029FF1FA6
:102730008429FF1FA029FF1FB429FF1FCC29FF1FD9
:102740009829FF1F9C29FF1F80B582B000AF28E0A9
:1027500000F0F4FD164B1B68002B14BF002301236F
:10276000DBB27B6000F0F8FD7B68002B19D100F034
:102770009FFE0F4BDB68DB683B603B680433184609
:1027800001F014F80B4B1B685A1E0A4B1A600A4BD7
:102790001B685A1E084B1A6000F0B8FE386800F03B
:1027A0000DF8054B1B68002BD2D10837BD4680BD04
:1027B000B429FF1FE029FF1FC829FF1F80B582B081
:1027C00000AF78607B681B6B184601F0CDFC786821
:1027D00001F0CAFC0837BD4680BD00BF80B483B09D
:1027E00000AF0E4B1B681B68002B01D1012300E0DA
:1027F0000023002B04D00A4B4FF0FF321A6008E090
:10280000064B1B68DB68DB687B607B685A68044B9F
:102810001A600C37BD465DF8047B70479829FF1F8E
:10282000002AFF1F80B483B000AF0B4B1B68002B46
:1028300002D101237B6008E0084B1B68002B02D10A
:1028400002237B6001E000237B607B6818460C3725
:10285000BD465DF8047B7047EC29FF1F082AFF1F67
:1028600080B584B000AF78607B68FB607B68002B2C
:1028700062D0FB68DA6A324B1B68DB6A9A425BD231
:10288000FB689B69002B06DB2D4B1B68DB6AC3F1E1
:102890000502FB689A61FB685969FB68DA6A1346AE
:1028A0009B0013449B00274A1344994201D1012302
:1028B00000E00023002B3AD0FB680433184600F0F8
:1028C00075FF0346002B15D1FB68DA6A1D491346D4
:1028D0009B0013449B000B441B68002B0AD1FB6830
:1028E000DB6A012202FA03F3DA43174B1B681A4032
:1028F000154B1A60124B1B68DA6AFB68DA62FB68D8
:10290000DB6A01229A40104B1B681A430E4B1A6077
:10291000FB68DA6A13469B0013449B00094A1A4479
:10292000FB6804331046194600F0E4FE04E0044B53
:102930001B68DA6AFB68DA621037BD4680BD00BFEB
:102940000829FF1F0C29FF1FE829FF1F80B586B04B
:1029500000AF78607B683B6100237B617B68002B64
:102960006CD0394B1B683A699A4209D04FF050033A
:1029700083F31188BFF36F8FBFF34F8FFB60FEE7C8
:102980003B69DB6C002B09D14FF0500383F31188B6
:10299000BFF36F8FBFF34F8FBB60FEE73B69DB6C0C
:1029A0005A1E3B69DA643B69DA6A3B699B6C9A425E
:1029B00044D03B69DB6C002B40D13B6904331846A3
:1029C00000F0F4FE0346002B15D13B69DA6A1F497B
:1029D00013469B0013449B000B441B68002B0AD139
:1029E0003B69DB6A012202FA03F3DA43184B1B68E6
:1029F0001A40174B1A603B699A6C3B69DA623B6973
:102A0000DB6AC3F105023B699A613B69DB6A01221B
:102A10009A400F4B1B681A430D4B1A603B69DA6AE8
:102A200013469B0013449B00084A1A443B69043335
:102A30001046194600F05EFE01237B617B69184653
:102A40001837BD4680BD00BF0829FF1F0C29FF1F96
:102A5000E829FF1F80B400AF074B1B68002B04D090
:102A6000054B1B68DA6C0132DA64034B1B681846AD
:102A7000BD465DF8047B70470829FF1F80B584B010
:102A800000AF78603960284B1B68FB60274B1B68E0
:102A90000433184600F08AFE0346002B0BD1234B6B
:102AA0001B68DB6A012202FA03F3DA43204B1B683E
:102AB0001A401F4B1A607B68B3F1FF3F0AD13B6895
:102AC000002B07D0194B1B6804331A48194600F035
:102AD00011FE26E0FA687B681344BB60134B1B6849
:102AE000BA685A60BA68FB689A4209D2124B1A68EF
:102AF0000E4B1B6804331046194600F01FFE10E011
:102B00000E4B1A68094B1B6804331046194600F037
:102B100015FE0B4B1B68BA689A4202D2084BBA6882
:102B20001A601037BD4680BDE429FF1F0829FF1F2A
:102B3000E829FF1FCC29FF1F9C29FF1F9829FF1F91
:102B4000002AFF1F80B584B002AF00237B60FFF72F
:102B5000ABF9104B1B68002B0AD0022300930E4BDD
:102B600001930E480E49B422002300F029FA786040
:102B70007B68002B09D14FF0500383F31188BFF31A
:102B80006F8FBFF34F8F3B60FEE77B6818460837B7
:102B9000BD4680BD3C2AFF1F402AFF1FC92C0000F4
:102BA0008C5C000080B58AB000AFF860B9607A60D4
:102BB0003B6000237B62FB68002B09D14FF0500380
:102BC00083F31188BFF36F8FBFF34F8F3B62FEE734
:102BD0001C4B1B68002B30D0BB683B617B687B6162
:102BE000FB68BB61BB68052B1CDCFFF71BFE0346C3
:102BF000022B0BD1134B1A6807F11003104619462C
:102C00003A6B002300F0BEFE786216E00D4B1A68A6
:102C100007F11003104619460022002300F0B2FE0F
:102C200078620AE0074B1A6807F11003104619464C
:102C30003A68002300F0A4FF78627B6A18462837C0
:102C4000BD4680BD3C2AFF1F80B588B002AF7860CA
:102C500039601C4B1B68DB68DB687B617B69043374
:102C6000184600F0A3FD7B69DB69012B22D17B694B
:102C70009A697B681344786919463A687B68FEF75D
:102C8000C3FF0346002B15D0002300937869002171
:102C90007A680023FFF786FF38613B69002B09D172
:102CA0004FF0500383F31188BFF36F8FBFF34F8F43
:102CB000FB60FEE77B695B6A786998471837BD4619
:102CC00080BD00BF342AFF1F80B584B000AF78609C
:102CD00007F108031846FEF753FFF860BB68F86871
:102CE0001946FEF7FFFEFEF7D1FFF1E780B586B08B
:102CF00000AFF860B9607A6000237B61FB689B6B72
:102D00003B61FB681B6C002B0DD1FB681B68002B23
:102D10004FD1FB685B681846FFF718FE7861FB68C7
:102D200000225A6045E07B68002B1AD1FB689A6844
:102D3000FB681B6C1046B9681A4601F06DFFFB6812
:102D40009A68FB681B6C1A44FB689A60FB689A6877
:102D5000FB685B689A422CD3FB681A68FB689A6030
:102D600027E0FB68DA68FB681B6C1046B9681A46F6
:102D700001F052FFFB68DA68FB681B6C5B421A4487
:102D8000FB68DA60FB68DA68FB681B689A4207D266
:102D9000FB685A68FB681B6C5B421A44FB68DA608C
:102DA0007B68022B05D13B69002B02D03B69013BBC
:102DB0003B613B695A1CFB689A637B69184618376C
:102DC000BD4680BD80B582B000AF786039607B6859
:102DD0001B6C002B19D07B68DA687B681B6C1A446B
:102DE0007B68DA607B68DA687B685B689A4203D349
:102DF0007B681A687B68DA607B68DA687B681B6CC2
:102E0000386811461A4601F007FF0837BD4680BDF5
:102E100080B584B000AF786000F04AFB7B6893F81F
:102E20004530FB7310E07B685B6A002B10D07B6839
:102E300024331846FFF744FB0346002B01D0FFF76D
:102E400021FCFB7B013BFB7397F90F30002BEADC85
:102E50007B68FF2283F8452000F058FB00F028FB38
:102E60007B6893F84430BB7310E07B681B69002BD0
:102E700010D07B6810331846FFF722FB0346002B67
:102E800001D0FFF7FFFBBB7B013BBB7397F90E3013
:102E9000002BEADC7B68FF2283F8442000F036FB3D
:102EA0001037BD4680BD00BF80B584B000AF7860EC
:102EB00000F0FEFA7B689B6B002B02D10123FB60C4
:102EC00001E00023FB6000F021FBFB68184610378F
:102ED000BD4680BD80B584B000AF786000F0E8FAF0
:102EE0007B689A6B7B68DB6B9A4202D10123FB60A3
:102EF00001E00023FB6000F009FBFB681846103777
:102F0000BD4680BD80B485B000AF786039600023D5
:102F1000FB6014E00E4BFA6853F83230002B0BD1F3
:102F20000B4BFA68396843F83210094AFB68DB003A
:102F300013447A685A6005E0FB680133FB60FB6864
:102F4000072BE7D91437BD465DF8047B704700BFF7
:102F5000C828FF1F80B586B000AFF860B9607A60FE
:102F6000FB687B6100F0A4FA7B6993F84430DBB224
:102F70005BB2B3F1FF3F03D17B69002283F84420A9
:102F80007B6993F84530DBB25BB2B3F1FF3F03D10D
:102F90007B69002283F8452000F0B8FA7B699B6BBF
:102FA000002B06D17B6924331846B9687A68FFF78D
:102FB0005DFA7869FFF72CFF1837BD4680BD00BF6A
:102FC00080B58CB004AFF860B9603B601346FB80FD
:102FD000FB889B00184601F005F878617B69002B9F
:102FE0000ED06C2000F0FEFFF861FB69002B03D0CF
:102FF000FB697A691A6305E0786901F0B5F801E0C8
:103000000023FB61FB69002B14D0FB88BA6A009295
:10301000FA6A0192FA69029200220392F868B9688A
:103020001A463B6800F00EF8F86900F09DF801239D
:10303000BB6102E04FF0FF33BB61BB69184620372C
:10304000BD4680BD80B588B000AFF860B9607A60D9
:103050003B603B6B1A6B7B689B001046A5211A46B0
:1030600001F026FE3B6B1A6B7B6803F18043013B4A
:103070009B001344BB61BB6923F00703BB61BB69C1
:1030800003F00703002B09D04FF0500383F311889E
:10309000BFF36F8FBFF34F8F7B61FEE70023FB61B0
:1030A00011E0BA68FB6913441A78396BFB690B4469
:1030B00030331A71BA68FB6913441B78002B05D0B2
:1030C000FB690133FB61FB69092BEAD93B6B0022E9
:1030D00083F83D20BB6A042B01D90423BB623B6B00
:1030E000BA6ADA623B6BBA6A9A643B6B0022DA64B2
:1030F0003B6B0433184600F0F1FA3B6B183318466B
:1031000000F0ECFA3B6B3A6B1A61BB6AC3F1050243
:103110003B6B9A613B6B3A6B5A620023FB6108E0A0
:103120003B6BFA691432002143F82210FB6901332A
:10313000FB61FB69042BF3D93B6B00225A663B6BA6
:10314000002283F86820B869F9683A6801F03EF90E
:1031500002463B6B1A60FB6A002B02D0FB6A3A6B9B
:103160001A602037BD4680BD80B582B000AF786060
:1031700000F09EF92C4B1B685A1C2B4B1A602B4BF2
:103180001B68002B09D1294B7A681A60264B1B68F3
:10319000012B10D1FFF79AFA0DE0254B1B68002B8D
:1031A00009D1224B1B68DA6A7B68DB6A9A4202D833
:1031B0001E4B7A681A601F4B1B685A1C1D4B1A6005
:1031C0001C4B1A687B681A647B68DB6A01229A4090
:1031D000194B1B681A43184B1A607B68DA6A13464E
:1031E0009B0013449B00154A1A447B680433104625
:1031F000194600F07FFA00F089F90D4B1B68002B8F
:103200000ED00A4B1B68DA6A7B68DB6A9A4207D2E7
:103210000B4B4FF080521A60BFF34F8FBFF36F8F8D
:103220000837BD4680BD00BFE029FF1F0829FF1FEA
:10323000EC29FF1FFC29FF1FE829FF1F0C29FF1F96
:1032400004ED00E080B584B000AF78600023FB603F
:103250007B68002B16D0124B1B68002B09D04FF057
:10326000500383F31188BFF36F8FBFF34F8FBB60A1
:10327000FEE700F063F878680021FFF7FFFB00F03D
:103280006BF8F860FB68002B07D1064B4FF08052BB
:103290001A60BFF34F8FBFF36F8F1037BD4680BDED
:1032A000082AFF1F04ED00E080B586B002AF0023BE
:1032B00000931C4B01931C481C495A220023FFF722
:1032C0007FFEF860FB68012B02D1FFF73BFCF86042
:1032D000FB68012B15D14FF0500383F31188BFF326
:1032E0006F8FBFF34F8FBB60114B4FF0FF321A60EF
:1032F000104B01221A60104B00221A6001F0E0F816
:103300000DE0FB68B3F1FF3F09D14FF0500383F3A9
:103310001188BFF36F8FBFF34F8F7B60FEE71037CD
:10332000BD4680BD042AFF1F9D260000945C00005E
:10333000002AFF1FEC29FF1FE429FF1F80B400AF04
:10334000044B1B685A1C034B1A60BD465DF8047B96
:10335000704700BF082AFF1F80B584B000AF00236C
:10336000FB600023BB60414B1B68002B09D14FF071
:10337000500383F31188BFF36F8FBFF34F8F3B6010
:10338000FEE700F095F8394B1B685A1E374B1A6060
:10339000364B1B68002B61D1354B1B68002B2FD19E
:1033A0005CE0344BDB68DB68FB60FB681833184675
:1033B00000F0FCF9FB680433184600F0F7F9FB68ED
:1033C000DB6A01229A402C4B1B681A432A4B1A6075
:1033D000FB68DA6A13469B0013449B00274A1A4491
:1033E000FB6804331046194600F084F9FB68DA6A7A
:1033F000234B1B68DB6A9A4202D3224B01221A60DC
:103400001C4B1B68002BCCD1FB68002B01D0FFF7B5
:10341000E5F91D4B1B687B607B68002B10D0FEF725
:10342000F9FE0346002B02D0164B01221A607B687E
:10343000013B7B607B68002BF1D1134B00221A60AB
:10344000104B1B68002B09D00123BB600F4B4FF0C2
:1034500080521A60BFF34F8FBFF36F8F00F056F8A2
:10346000BB6818461037BD4680BD00BF082AFF1F45
:10347000E029FF1FA029FF1FE829FF1F0C29FF1FBC
:103480000829FF1FF429FF1FF029FF1F04ED00E0AA
:1034900080B483B000AF054B1B687B607B68184627
:1034A0000C37BD465DF8047B704700BFE429FF1F61
:1034B00080B483B000AF4FF0500383F31188BFF3A3
:1034C0006F8FBFF34F8F7B600E4B1B685A1C0D4BE9
:1034D0001A600C4B1B68012B0ED10B4B1B68DBB227
:1034E000002B09D04FF0500383F31188BFF36F8F87
:1034F000BFF34F8F3B60FEE70C37BD465DF8047BA2
:10350000704700BF0C00FF1F04ED00E080B483B0E3
:1035100000AF104B1B68002B09D14FF0500383F311
:103520001188BFF36F8FBFF34F8F7B60FEE7094BAE
:103530001B685A1E074B1A60064B1B68002B04D1F0
:1035400000233B603B6883F311880C37BD465DF870
:10355000047B70470C00FF1F00000000000000000B
:10356000EFF30980BFF36F8F154B1A681EF0100F31
:1035700008BF20ED108A20E9F04F10604DF8043D9F
:103580004FF0500080F31188BFF34F8FBFF36F8F60
:10359000FEF7F0FE4FF0000080F3118808BC1968B8
:1035A0000868B0E8F04F1EF0100F08BFB0EC108AAA
:1035B00080F30988BFF36F8F704700BFAFF30080BF
:1035C0000829FF1FAFF30080AFF30080AFF3008046
:1035D00080B582B000AF4FF0500383F31188BFF382
:1035E0006F8FBFF34F8F7B60FEF714FE0346002BF7
:1035F00003D0064B4FF080521A6000233B603B68BB
:1036000083F311880837BD4680BD00BF04ED00E09C
:10361000DFF80C00016841F47001016070470000A0
:1036200088ED00E080B485B000AFEFF30583FB6068
:10363000FB680F2B13D9154AFB6813441B78FB72E8
:10364000134B1B78FA7A9A4209D24FF0500383F356
:103650001188BFF36F8FBFF34F8F7B60FEE70D4B79
:103660001B6803F4E0620C4B1B689A4209D94FF0C7
:10367000500383F31188BFF36F8FBFF34F8F3B600D
:10368000FEE71437BD465DF8047B7047F0E300E0C9
:10369000C028FF1F0CED00E0C428FF1F80B483B0DA
:1036A00000AF78607B6803F108027B685A607B6832
:1036B0004FF0FF329A607B6803F108027B68DA60A2
:1036C0007B6803F108027B681A617B6800221A603C
:1036D0000C37BD465DF8047B704700BF80B483B0F3
:1036E00000AF78607B6800221A610C37BD465DF838
:1036F000047B704780B485B000AF786039607B6828
:103700005B68FB603B68FA685A60FB689A683B68D4
:103710009A60FB689B683A685A60FB683A689A60EE
:103720003B687A681A617B681B685A1C7B681A6060
:103730001437BD465DF8047B704700BF80B485B088
:1037400000AF786039603B681B68BB60BB68B3F151
:10375000FF3F03D17B681B69FB600CE07B6808338B
:10376000FB6002E0FB685B68FB60FB685B681A68F3
:10377000BB689A42F6D9FB685A683B685A603B6856
:103780005B683A689A603B68FA689A60FB683A68D6
:103790005A603B687A681A617B681B685A1C7B68B0
:1037A0001A601437BD465DF8047B704780B485B05D
:1037B00000AF78607B681B69FB607B685B687A6838
:1037C00092689A607B689B687A6852685A60FB6866
:1037D0005A687B689A4203D17B689A68FB685A6092
:1037E0007B6800221A61FB681B685A1EFB681A601E
:1037F000FB681B6818461437BD465DF8047B7047AC
:1038000080B584B000AF786039607B68FB60FB688E
:10381000002B09D14FF0500383F31188BFF36F8F52
:10382000BFF34F8FBB60FEE7FFF742FEFB681A68ED
:10383000FB68DB6BF968096C01FB03F31A44FB6856
:103840005A60FB6800229A63FB681A68FB689A60FA
:10385000FB681A68FB68DB6B013BF968096C01FBCC
:1038600003F31A44FB68DA60FB68FF2283F8442004
:10387000FB68FF2283F845203B68002B14D1FB68CE
:103880001B69002B1AD0FB6810331846FEF718FE90
:103890000346002B12D00D4B4FF080521A60BFF33D
:1038A0004F8FBFF36F8F09E0FB6810331846FFF7A7
:1038B000F5FEFB6824331846FFF7F0FEFFF726FEFF
:1038C000012318461037BD4680BD00BF04ED00E05F
:1038D00080B58AB002AFF860B9601346FB71FB682F
:1038E000002B09D14FF0500383F31188BFF36F8F82
:1038F000BFF34F8F3B61FEE7BB68002B02D1002373
:10390000FB6104E0FB68BA6802FB03F3FB61FB693F
:103910005033184600F066FBB861BB69002B0AD033
:10392000BB6950337B61FB79BA690092F868B9686A
:103930007A6900F005F8BB6918462037BD4680BD9E
:1039400080B584B000AFF860B9607A60FB70BB6886
:10395000002B03D1BB69BA691A6002E0BB697A68BF
:103960001A60BB69FA68DA63BB69BA681A64B86935
:103970000121FFF745FFBB69FA7883F84C20103727
:10398000BD4680BD80B58EB000AFF860B9607A608A
:103990003B6000237B63FB683B633B6B002B09D1DF
:1039A0004FF0500383F31188BFF36F8FBFF34F8F36
:1039B000BB62FEE7BB68002B03D13B6B1B6C002B8B
:1039C00001D1012300E00023002B09D14FF0500367
:1039D00083F31188BFF36F8FBFF34F8F7B62FEE7D6
:1039E0003B68022B03D13B6BDB6B012B01D1012325
:1039F00000E00023002B09D14FF0500383F311881E
:103A0000BFF36F8FBFF34F8F3B62FEE7FEF70AFFF6
:103A10000346002B02D17B68002B01D1012300E07B
:103A20000023002B09D14FF0500383F31188BFF31B
:103A30006F8FBFF34F8FFB61FEE7FFF739FD3B6BE5
:103A40009A6B3B6BDB6B9A4202D33B68022B29D10A
:103A5000386BB9683A68FFF749F9F8623B6B5B6A03
:103A6000002B10D03B6B24331846FEF729FD03468C
:103A7000002B13D0414B4FF080521A60BFF34F8F91
:103A8000BFF36F8F0AE0FB6A002B07D03B4B4FF070
:103A900080521A60BFF34F8FBFF36F8FFFF736FD71
:103AA000012366E07B68002B03D1FFF72FFD002385
:103AB0005FE07B6B002B06D107F114031846FEF77D
:103AC00061FD01237B63FFF721FDFFF737FCFFF763
:103AD000EFFC3B6B93F84430DBB25BB2B3F1FF3FDA
:103AE00003D13B6B002283F844203B6B93F84530B5
:103AF000DBB25BB2B3F1FF3F03D13B6B002283F833
:103B00004520FFF703FD07F114023B1D104619463F
:103B1000FEF75AFD0346002B25D1386BFFF7DAF983
:103B20000346002B19D03B6B03F110027B68104653
:103B30001946FEF779FC386BFFF76AF9FFF70CFCC2
:103B40000346002B7FF479AF0C4B4FF080521A6084
:103B5000BFF34F8FBFF36F8F6FE7386BFFF758F9E5
:103B6000FFF7FAFB69E7386BFFF752F9FFF7F4FB51
:103B7000002318463837BD4680BD00BF04ED00E085
:103B800080B58EB000AFF860B9607A603B60FB68CA
:103B90003B633B6B002B09D14FF0500383F311883B
:103BA000BFF36F8FBFF34F8F7B62FEE7BB68002BC5
:103BB00003D13B6B1B6C002B01D1012300E00023E0
:103BC000002B09D14FF0500383F31188BFF36F8F9F
:103BD000BFF34F8F3B62FEE73B68022B03D13B6B89
:103BE000DB6B012B01D1012300E00023002B09D165
:103BF0004FF0500383F31188BFF36F8FBFF34F8FE4
:103C0000FB61FEE7FFF70EFDEFF311824FF050036B
:103C100083F31188BFF36F8FBFF34F8FBA617B615E
:103C2000BB69FB623B6B9A6B3B6BDB6B9A4202D3CB
:103C30003B68022B2CD13B6B93F8453087F82B3037
:103C4000386BB9683A68FFF751F897F92B30B3F140
:103C5000FF3F12D13B6B5B6A002B16D03B6B2433CA
:103C60001846FEF72DFC0346002B0ED07B68002B78
:103C70000BD07B6801221A6007E097F82B300133E4
:103C8000DBB2DAB23B6B83F8452001237B6301E0B2
:103C900000237B63FB6A3B613B6983F311887B6B89
:103CA00018463837BD4680BD80B58EB000AFF8608D
:103CB000B9607A603B6000237B63FB683B633B6BCE
:103CC000002B09D14FF0500383F31188BFF36F8F9E
:103CD000BFF34F8F7B62FEE7BB68002B03D13B6BCA
:103CE0001B6C002B01D1012300E00023002B09D124
:103CF0004FF0500383F31188BFF36F8FBFF34F8FE3
:103D00003B62FEE7FEF78EFD0346002B02D17B6887
:103D1000002B01D1012300E00023002B09D14FF03B
:103D2000500383F31188BFF36F8FBFF34F8FFB6195
:103D3000FEE7FFF7BDFB3B6B9B6BFB62FB6A002B57
:103D400046D03B6BDB68BB62386BB968FFF73AF86B
:103D50003B68002B21D1FB6A5A1E3B6B9A633B6B7D
:103D60001B68002B04D1FEF775FE02463B6B5A60C0
:103D70003B6B1B69002B27D03B6B10331846FEF7BB
:103D80009FFB0346002B1FD0514B4FF080521A600F
:103D9000BFF34F8FBFF36F8F16E03B6BBA6ADA60E9
:103DA0003B6B5B6A002B0FD03B6B24331846FEF74E
:103DB00087FB0346002B07D0454B4FF080521A601B
:103DC000BFF34F8FBFF36F8FFFF7A0FB01237AE0A4
:103DD0007B68002B03D1FFF799FB002373E07B6B1B
:103DE000002B06D107F114031846FEF7CBFB012385
:103DF0007B63FFF78BFBFFF7A1FAFFF759FB3B6BE8
:103E000093F84430DBB25BB2B3F1FF3F03D13B6BBD
:103E1000002283F844203B6B93F84530DBB25BB261
:103E2000B3F1FF3F03D13B6B002283F84520FFF73E
:103E30006DFB07F114023B1D10461946FEF7C4FB4B
:103E40000346002B32D1386BFFF72EF80346002BC8
:103E500026D03B6B1B68002B08D1FFF729FB3B6B7F
:103E60005B681846FEF7FCFCFFF750FB3B6B03F169
:103E700024027B6810461946FEF7D6FA386BFEF727
:103E8000C7FFFFF769FA0346002B7FF452AF104BD0
:103E90004FF080521A60BFF34F8FBFF36F8F48E728
:103EA000386BFEF7B5FFFFF757FA42E7386BFEF7BE
:103EB000AFFFFFF751FA386BFEF7F6FF0346002B12
:103EC0003FF437AF002318463837BD4680BD00BFEA
:103ED00004ED00E080B400AF0B4B0B4AD2F8882011
:103EE00042F47002C3F88820084B4CF22052DA8169
:103EF000064B4DF62812DA81044B4FF4E9721A8012
:103F0000BD465DF8047B704700ED00E000200540F1
:103F100080B582B002AFFCF79DFCFCF7FFFBFCF71D
:103F2000CDFB0D4B1B6804220092002201920B482E
:103F30000B495A22FFF744F80A4B1B6804220092EF
:103F400000220192084809495A22FFF739F8FFF781
:103F5000ABF900BFFDE700BF0400FF1F8D3F00006D
:103F6000B45C00000800FF1FB93F0000C05C000007
:103F700080B483B000AF786039607B683A68DA60FB
:103F80000C37BD465DF8047B704700BF80B584B038
:103F900000AF78607B68FB60F86800F0A3FB054821
:103FA0004FF40011FFF7E4FF4FF47A70FFF74AF97E
:103FB000F2E700BF40F00F4080B584B000AF7860FA
:103FC0007B68FB60F86800F08DFB05484FF080616E
:103FD000FFF7CEFF4FF47A70FFF734F9F2E700BF36
:103FE00000F10F4080B58AB000AF78600023FB611C
:103FF000FFF7A4F9574B1B68002B01D100F00CF917
:10400000554B1A687B681340002B40F08C807B680E
:10401000002B1CD008237A6813447B607B6803F074
:104020000703002B13D07B6823F0070308337B6062
:104030007B6803F00703002B09D04FF0500383F394
:104040001188BFF36F8FBFF34F8F7B61FEE77B68F3
:10405000002B68D0414B1B687A689A4263D8404B6A
:104060003B623F4B1B687B6204E07B6A3B627B6A7E
:104070001B687B627B6A5A687B689A4203D27B6AC0
:104080001B68002BF1D1334B1B687A6A9A424AD0E5
:104090003B6A1A6808231344FB617B6A1A683B6A0F
:1040A0001A607B6A5A687B68D21A08235B009A42BE
:1040B0001ED97A6A7B681344BB61BB6903F00703AE
:1040C000002B09D04FF0500383F31188BFF36F8F9B
:1040D000BFF34F8F3B61FEE77B6A5A687B68D21A59
:1040E000BB695A607B6A7A685A60B86900F0F6F872
:1040F0001A4B1A687B6A5B68D21A184B1A60174B06
:104100001A68184B1B689A4203D2144B1A68154B55
:104110001A607B6A5A68104B1B681A437B6A5A60A4
:104120007B6A00221A60FFF717F9FB6903F00703A7
:10413000002B09D04FF0500383F31188BFF36F8F2A
:10414000BFF34F8FFB60FEE7FB6918462837BD467B
:1041500080BD00BFB028FF1FBC28FF1FB428FF1F71
:10416000A828FF1FB828FF1F80B586B000AF786071
:104170007B687B617B68002B46D008235B427A69B1
:1041800013447B617B693B613B695A68204B1B6828
:104190001340002B09D14FF0500383F31188BFF374
:1041A0006F8FBFF34F8FFB60FEE73B691B68002BEF
:1041B00009D04FF0500383F31188BFF36F8FBFF323
:1041C0004F8FBB60FEE73B695A68114B1B68134079
:1041D000002B19D03B691B68002B15D13B695A682D
:1041E0000B4B1B68DB431A403B695A60FFF7A6F88C
:1041F0003B695A68074B1B681A44064B1A603869BA
:1042000000F06CF8FFF7A8F81837BD4680BD00BF76
:10421000BC28FF1FB428FF1F80B485B000AF4FF447
:104220002053BB60274BFB60FB6803F00703002BA8
:104230000CD0FB680733FB60FB6823F00703FB60CF
:10424000BA68FB68D21A1F4B1344BB60FB687B60E3
:104250001D4B7A681A601C4B00225A607A68BB6852
:104260001344FB600823FA68D31AFB60FB6823F051
:104270000703FB60FA68154B1A60144B1B68002299
:104280005A60124B1B6800221A607B683B603B68D7
:10429000FA68D21A3B685A600C4B1A683B681A607D
:1042A0003B685A680A4B1A603B685A68094B1A60A7
:1042B000094B4FF000421A601437BD465DF8047B8D
:1042C000704700BFA800FF1FA828FF1FB028FF1FCE
:1042D000B828FF1FB428FF1FBC28FF1F80B485B07B
:1042E00000AF7860274BFB6002E0FB681B68FB6057
:1042F000FB681A687B689A42F7D3FB68BB60FB686F
:104300005B68BA681A447B689A4208D1FB685A68AD
:104310007B685B681A44FB685A60FB687B607B685B
:10432000BB607B685B68BA681A44FB681B689A428A
:1043300018D1FB681A68144B1B689A420DD07B6831
:104340005A68FB681B685B681A447B685A60FB68A4
:104350001B681A687B681A6008E00B4B1A687B6858
:104360001A6003E0FB681A687B681A60FA687B6869
:104370009A4202D0FB687A681A601437BD465DF82D
:10438000047B7047A828FF1FB028FF1F80B400AF30
:10439000094B0A4A11680A4AA2FB01029209013A32
:1043A0001A60084B00221A60074B07221A60BD46AC
:1043B0005DF8047B704700BF14E000E00000FF1FC1
:1043C000D34D621018E000E010E000E080B485B04A
:1043D00000AFF860B9607A60FB68043BFB60FB6883
:1043E0004FF080721A60FB68043BFB60BB6823F0EF
:1043F0000102FB681A60FB68043BFB600C4AFB6827
:104400001A60FB68143BFB607A68FB681A60FB6803
:10441000043BFB60FB686FF002021A60FB68203B04
:10442000FB60FB6818461437BD465DF8047B704797
:104430003544000080B483B000AF0C4B1B68B3F16F
:10444000FF3F09D04FF0500383F31188BFF36F8F04
:10445000BFF34F8F7B60FEE74FF0500383F311886B
:10446000BFF36F8FBFF34F8F3B60FEE70C00FF1F62
:10447000074B19680868B0E8F04F80F30988BFF36C
:104480006F8F4FF0000080F311887047AFF300800A
:104490000829FF1FAFF30080AFF30080AFF3008067
:1044A00006480068006880F3088862B661B6BFF30A
:1044B0004F8FBFF36F8F00DF00BF000008ED00E0FB
:1044C00080B586B000AF3B4B1A683B4B9A4209D18E
:1044D0004FF0500383F31188BFF36F8FBFF34F8FFB
:1044E0003B61FEE7334B1A68344B9A4209D14FF0D7
:1044F000500383F31188BFF36F8FBFF34F8FFB60BF
:10450000FEE72F4B7B617B691B78DBB2BB607B696D
:10451000FF221A707B691B78DBB2FB71FB79DBB27F
:1045200003F05003DAB2274B1A70274B07221A60A8
:1045300009E0254B1B685A1E234B1A60FB79DBB23E
:104540005B00DBB2FB71FB79DBB2DBB25BB2002B51
:10455000EFDB1D4B1B681A021B4B1A601A4B1B68C2
:1045600003F4E062184B1A60BB68DAB27B691A7018
:10457000164B164A126842F470021A60134B134A23
:10458000126842F070421A60FFF700FF104B0022E1
:104590001A60FFF73DF80F4B0E4A126842F0404296
:1045A0001A60FFF77DFFFFF745FF00231846183715
:1045B000BD4680BD00ED00E071C20F4170C20F41E9
:1045C00000E400E0C028FF1FC428FF1F20ED00E02A
:1045D0000C00FF1F34EF00E080B483B000AF7860C0
:1045E0000B46FB70FB78002B08D07B68DB78DBB2D6
:1045F00043F00803DAB27B68DA7007E07B68DB78A7
:10460000DBB223F00803DAB27B68DA700C37BD4600
:104610005DF8047B704700BF80B483B000AF786062
:104620000B46FB70FB78002B08D07B68DB78DBB295
:1046300043F00403DAB27B68DA7007E07B68DB786A
:10464000DBB223F00403DAB27B68DA700C37BD46C4
:104650005DF8047B704700BF80B588B000AFF8609C
:10466000B9603B601346FB711B4B1B78002B01D0DC
:1046700001232DE0184BFA791A70FB79012B26D112
:10468000FA68154B5A6007F114031846FCF710FC42
:10469000BB687B61104B5A6807F11403104619463A
:1046A0003A68FCF799FA0C4B5B6818460121FFF752
:1046B00093FF094B5B6818460121FFF7ADFF064BDE
:1046C000064A9A60044B064ADA60002300E004239D
:1046D00018462037BD4680BD9800FF1F2109000005
:1046E0005D0900000FB480B582B000AF0B4B1B78A2
:1046F000002B02D14FF0FF3309E007F114033B60B8
:10470000074839693A6800F0D3F878607B68184642
:104710000837BD46BDE8804004B070479800FF1FD1
:104720002547000080B582B000AF78600A4B1B7847
:10473000002B02D14FF0FF3309E0074B9B68064A7C
:1047400051683A1D08461146012298470123184630
:104750000837BD4680BD00BF9800FF1F80B586B0FA
:1047600000AFB9607A603B600346FB73BB687B6156
:104770000CE097F90F203B6A104698473B681B688E
:104780005A1C3B681A607B6901337B617A697B68DC
:104790009A42EEDB1837BD4680BD00BF80B48DB0B5
:1047A00000AFF860B9607A603B600023FB61FB6892
:1047B000BB61BB695A1CBA6100221A707B68002B6E
:1047C00035D0BB681B68FB62FB6A002B2BD1BB6931
:1047D00030221A70FB690133FB61FB6962E0FA6AFF
:1047E0003B6892FBF3F37B617B693A6802FB03F35E
:1047F000FA6AD31ABB62BB6A002B06DABB6A3B6259
:104800003B6AC3F13003BB6202E0BB6A3033BB6278
:104810007B69FB62BB695A1CBA61BA6AD2B21A7070
:10482000FB690133FB61FB6A002BD8D139E0BB681F
:104830001B687B627B6A002B30D1BB6930221A7007
:10484000FB690133FB61FB692CE03B687A6AB2FBD0
:10485000F3F33B613B683A6902FB03F37A6AD31ACC
:104860003B623B6A092B03D83B6A30333B620AE068
:1048700097F83830002B01D0412300E061233A6AD9
:1048800013440A3B3B623B697B62BB695A1CBA61B9
:104890003A6AD2B21A70FB690133FB617B6A002B62
:1048A000D3D1FB6918463437BD465DF8047B7047A9
:1048B00080B59CB002AFF860B9607A6000233B66B7
:1048C0000023FB650023BB61002387F84A300023E7
:1048D0003B61BB687B6691E17B6C252B06D0FB6856
:1048E000786C9847BB690133BB6184E1012387F889
:1048F0004B3000237B650023BB651CE07B6E0133DE
:104900007B667B6E1B785BB27B647B6C2F2B0DDD33
:104910007B6C392B0ADC7A6D13469B0013445B00D9
:104920001A467B6C1344303B7B6504E07B6E013B95
:104930007B660123BB65BB6D002BDFD006233B6587
:104940007B6E01337B667B6E1B785BB22E2B25D191
:1049500000233B650023BB651CE07B6E01337B6657
:104960007B6E1B785BB27B647B6C2F2B0DDD7B6CCD
:10497000392B0ADC3A6D13469B0013445B001A4640
:104980007B6C1344303B3B6504E07B6E013B7B66F4
:104990000123BB65BB6D002BDFD002E07B6E013BCA
:1049A0007B667B6E01337B667B6E1B785BB27B64C0
:1049B0007B6C642B1BD07B6C692B18D07B6C662BBB
:1049C00015D07B6C462B12D07B6C782B0FD07B6C78
:1049D000582B0CD07B6C6F2B09D07B6C622B06D0D4
:1049E0007B6C702B03D07B6C752B40F0C3807B6C91
:1049F000642B02D07B6C692B17D17B681A1D7A60FF
:104A00001B687B6107F11C0207F1140397F84B1038
:104A100000911046194601220A23FFF7BFFEF865F0
:104A200007F11C02FB6D13443B667B6C582B02D0D4
:104A30007B6C782B1DD17B6C782B02D1002387F8FF
:104A40004B307B681A1D7A601B683B6107F11C02C2
:104A500007F1100397F84B100091104619460022F9
:104A60001023FFF79BFEF86507F11C02FB6D134452
:104A70003B667B6C6F2B08D07B6C622B05D07B6C0C
:104A8000702B02D07B6C752B57D17B681A1D7A6016
:104A90001B683B617B6C623B132B3AD801A252F836
:104AA00023F000BFFD4A0000134B0000134B000031
:104AB000134B0000134B0000134B0000134B00007E
:104AC000134B0000134B0000134B0000134B00006E
:104AD000134B0000134B0000F54A0000054B00008B
:104AE000134B0000134B0000134B0000134B00004E
:104AF0000D4B0000082387F84A300AE0022387F8AC
:104B00004A3006E0102387F84A3002E00A2387F88B
:104B10004A3097F84A3007F11C0107F1100297F864
:104B20004B000090084611460022FFF737FEF8655B
:104B300007F11C02FB6D13443B667A6D07F1180305
:104B4000F96800912020F96DFFF708FE3B6E002BFD
:104B50000BD150E03B6E5A1E3A661B785AB2FB6886
:104B600010469847BB690133BB613B6E1B78002B35
:104B7000F0D140E07B6C632B0DD17B681A1D7A600D
:104B80001B68DBB25BB23B64FB68386C9847BB695F
:104B90000133BB612FE07B6C732B26D17B681A1D20
:104BA0007A601B68FB64FB6C002B24D0F86C00F06F
:104BB0003CF80346FB657A6D07F11803F96800912C
:104BC0002020F96DFFF7CAFD0AE0FB6C5A1CFA645D
:104BD0001B785AB2FB6810469847BB690133BB612A
:104BE000FB6C1B78002BF0D105E0FB68786C9847D4
:104BF000BB690133BB617B6E01337B667B6E1B78C7
:104C00005BB27B647B6C002B7FF466AEBB6918469D
:104C10006837BD4680BD00BF10B50023934203D066
:104C2000CC5CC4540133F9E710BD034613F8012BE3
:104C3000002AFBD1181A01387047000008B5074B4D
:104C4000044613B10021AFF30080054B1868836A56
:104C500003B19847204600F033F800BF0000000081
:104C6000945E000070B50E4B0E4DED1AAD10002491
:104C70001E46AC4204D056F8242090470134F8E791
:104C800001F00AF9084D094BED1AAD1000241E463B
:104C9000AC4204D056F8242090470134F8E770BDA8
:104CA000B85E0000B85E0000BC5E0000B85E0000A8
:104CB00002440346934202D003F8011BFAE770470F
:104CC000FEE700BF68656C70000000000D0A2268F6
:104CD000656C70223A204C6973747320616C6C208F
:104CE00074686520726567697374657265642063B2
:104CF0006F6D6D616E64730D0A00000065786974F4
:104D0000000000000D0A2265786974223A20457877
:104D100069742070726F6772616D0D0A0000000087
:104D20005461736B20426C75652069732072756ED7
:104D30006E696E670A0D00005461736B20477265DF
:104D4000656E2069732072756E6E696E670A0D005C
:104D50005461736B205265642069732072756E6EA6
:104D6000696E670A0D0000002E2E2F647269766549
:104D700072732F66736C5F756172745F65646D61C9
:104D80002E63000068616E646C65000068616E648B
:104D90006C652D3E747845646D6148616E646C6528
:104DA0000000000078666572000000007866657299
:104DB0002D3E646174610000786665722D3E646109
:104DC000746153697A65000068616E646C652D3E9C
:104DD000727845646D6148616E646C650000000026
:104DE000636F756E740000002E2E2F6472697665F5
:104DF00072732F66736C5F767265662E63000000B7
:104E0000696E7374616E6365203C2046534C5F4647
:104E10004541545552455F534F435F565245465F97
:104E2000434F554E54000000636F6E666967202142
:104E30003D204E554C4C0000636F6E666967000064
:104E40002E2E2F647269766572732F66736C5F778E
:104E5000646F672E6300000003020000000004007E
:104E600000131800010200000000240180F0FA0283
:104E700000008000010100002E2E2F64726976650B
:104E800072732F66736C5F756172742E630000001D
:104E9000646174610000000068616E646C6500000C
:104EA00072696E6742756666657200007866657243
:104EB00000000000786665722D3E6461746153697C
:104EC0007A650000786665722D3E64617461000049
:104ED000636F756E740000002E2E2F647269766504
:104EE00072732F66736C5F756172745F65646D6158
:104EF0002E630000706172616D0000002E2E2F6421
:104F00007269766572732F66736C5F736468632E63
:104F1000630000006361706162696C69747900000C
:104F2000737263436C6F636B5F487A20213D20305E
:104F30005500000028627573436C6F636B5F487A9D
:104F400020213D20305529202626202862757343D4
:104F50006C6F636B5F487A203C3D20737263436CD7
:104F60006F636B5F487A2900636F6E666967000044
:104F7000636F6E6669672D3E64617461426C6F6336
:104F80006B53697A65203C3D2028534448435F4277
:104F90004C4B415454525F424C4B53495A455F4D20
:104FA00041534B203E3E20534448435F424C4B41CB
:104FB0005454525F424C4B53495A455F53484946FB
:104FC00054290000636F6E6669672D3E64617461E9
:104FD000426C6F636B436F756E74203C3D202853A9
:104FE0004448435F424C4B415454525F424C4B4304
:104FF0004E545F4D41534B203E3E20534448435F47
:10500000424C4B415454525F424C4B434E545F53BD
:105010004849465429000000636F6E6669672D3E5B
:1050200061636B54696D656F7574436F756E742041
:105030003C3D2028534448435F4D4D43424F4F541D
:105040005F44544F435641434B5F4D41534B203EC9
:105050003E20534448435F4D4D43424F4F545F44BD
:10506000544F435641434B5F53484946542900002F
:10507000636F6E6669672D3E626C6F636B436F751D
:105080006E74203C3D2028534448435F4D4D4342BD
:105090004F4F545F424F4F54424C4B434E545F4D21
:1050A00041534B203E3E20534448435F4D4D4342C5
:1050B0004F4F545F424F4F54424C4B434E545F53FB
:1050C00048494654290000007472616E7366657227
:1050D0000000000068616E646C65000063616C6CC8
:1050E0006261636B00000000735F73646863486112
:1050F0006E646C655B305D00FFFFFFFFFFFFFFFF2D
:105100002E2E2F647269766572732F66736C5F75CD
:105110006172742E63000000696E7374616E636562
:10512000203C20756172744172726179436F756EB3
:1051300074000000636F6E6669672D3E626175647E
:10514000526174655F4270730000000046534C5F0B
:10515000464541545552455F554152545F46494674
:105160004F5F53495A456E286261736529203E3D61
:1051700020636F6E6669672D3E74784669666F5767
:10518000617465726D61726B0000000046534C5F84
:10519000464541545552455F554152545F46494634
:1051A0004F5F53495A456E286261736529203E3D21
:1051B00020636F6E6669672D3E72784669666F5729
:1051C000617465726D61726B0000000062617564EC
:1051D000526174655F427073000000002E2E2F64D0
:1051E0007269766572732F66736C5F7361692E6383
:1051F0000000000068616E646C650000735F73619D
:105200006948616E646C655B305D5B305D00000019
:10521000735F73616948616E646C655B305D5B31BF
:105220005D0000002E2E2F647269766572732F6602
:10523000736C5F66746D2E6300000000636F6E66B2
:105240006967000063686E6C506172616D73000085
:10525000737263436C6F636B5F487A0070776D465F
:105260007265715F487A00006E756D4F6643686EB7
:105270006C73000065646765506172616D000000C9
:10528000706861736541506172616D730000000068
:10529000706861736542506172616D730000000057
:1052A0006661756C74506172616D730063686E6CD9
:1052B000436F756E7420213D202D31002E2E2F64FA
:1052C0007269766572732F66736C5F6770696F2E93
:1052D00063000000696E7374616E6365203C204654
:1052E000534C5F464541545552455F534F435F47CA
:1052F00050494F5F434F554E540000002E2E2F64EF
:105300007269766572732F66736C5F6932632E63A0
:1053100000000000696E7374616E6365203C204676
:10532000534C5F464541545552455F534F435F4987
:1053300032435F434F554E54000000006D6173745B
:105340006572436F6E666967202626207372634319
:105350006C6F636B5F487A006D6173746572436F45
:105360006E666967000000002E2E2F6472697665F4
:1053700072732F66736C5F666C657863616E2E6303
:1053800000000000636F6E66696700006D61736BFB
:10539000496478203C3D2028626173652D3E4D4371
:1053A0005220262043414E5F4D43525F4D41584DA0
:1053B000425F4D41534B29006D62496478203C3D6A
:1053C0002028626173652D3E4D43522026204341C3
:1053D0004E5F4D43525F4D41584D425F4D41534BDF
:1053E0002900000021464C455843414E5F49734D0A
:1053F000624F6363757069656428626173652C2010
:105400006D624964782900002828636F6E666967B9
:1054100029207C7C202866616C7365203D3D2065D9
:105420006E61626C6529290028636F6E6669672961
:10543000207C7C202866616C7365203D3D20656E74
:1054400061626C6529000000636F6E6669672D3EBE
:10545000696446696C7465724E756D203C3D2031FF
:1054600032380000282873657475705F6D62202DD6
:10547000203829202D202832202A207266666E29A5
:1054800029203E203000000074784672616D65006E
:1054900074784672616D652D3E6C656E6774682028
:1054A0003C3D20380000000072784672616D650056
:1054B00068616E646C6500007866657200000000CB
:1054C000786665722D3E6D62496478203C3D2028E7
:1054D000626173652D3E4D435220262043414E5F4D
:1054E0004D43525F4D41584D425F4D41534B290052
:1054F00021464C455843414E5F49734D624F6363AB
:10550000757069656428626173652C2078666572C0
:105510002D3E6D624964782900000000735F666C5F
:10552000657863616E48616E646C655B305D000038
:105530002E2E2F647269766572732F66736C5F66A8
:10554000746D2E6300000000696E7374616E636594
:10555000203C2066746D4172726179436F756E7480
:10556000000000002E2E2F647269766572732F661C
:10557000736C5F65646D612E630000006368616E2B
:105580006E656C203C2046534C5F46454154555255
:10559000455F45444D415F4D4F44554C455F434841
:1055A000414E4E454C00000074636420213D204E66
:1055B000554C4C00282875696E7433325F74297419
:1055C0006364202620307831465529203D3D203027
:1055D00000000000636F6E66696720213D204E5514
:1055E0004C4C0000282875696E7433325F74296E44
:1055F000657874546364202620307831465529201C
:105600003D3D2030000000006C696E6B65644368AE
:10561000616E6E656C203C2046534C5F464541549C
:105620005552455F45444D415F4D4F44554C455F94
:105630004348414E4E454C0068616E646C652021C4
:105640003D204E554C4C0000282875696E7433324D
:105650005F7429746364506F6F6C2026203078313A
:10566000465529203D3D2030000000007372634103
:1056700064647220213D204E554C4C006465737467
:105680004164647220213D204E554C4C00000000C6
:10569000287372635769647468203D3D2031552931
:1056A000207C7C20287372635769647468203D3DB8
:1056B00020325529207C7C202873726357696474DA
:1056C00068203D3D20345529207C7C20287372635E
:1056D0005769647468203D3D2031365529207C7C13
:1056E00020287372635769647468203D3D2033320B
:1056F0005529000028646573745769647468203DF7
:105700003D20315529207C7C2028646573745769BD
:10571000647468203D3D20325529207C7C2028641B
:105720006573745769647468203D3D2034552920A1
:105730007C7C2028646573745769647468203D3DDF
:105740002031365529207C7C202864657374576984
:10575000647468203D3D2033325529007472616EB7
:105760007366657242797465732025206279746569
:10577000734561636852657175657374203D3D20A2
:10578000300000002E2E2F647269766572732F66CA
:10579000736C5F647370692E6300000068616E64EF
:1057A0006C650000675F6473706948616E646C6566
:1057B0005B305D00675F6473706948616E646C653F
:1057C0005B315D00675F6473706948616E646C652E
:1057D0005B325D002E2E2F647269766572732F66C0
:1057E000736C5F65646D612E680000006368616EB4
:1057F0006E656C203C2046534C5F464541545552E3
:10580000455F45444D415F4D4F44554C455F4348CE
:10581000414E4E454C000000636F6E666967202163
:105820003D204E554C4C00006368616E6E656C20E7
:105830003C2046534C5F464541545552455F444DCC
:10584000414D55585F4D4F44554C455F4348414E7F
:105850004E454C002E2E2F647269766572732F664A
:10586000736C5F647370695F65646D612E630000C3
:1058700065646D615278526567546F527844617403
:105880006148616E646C650065646D615478446163
:105890007461546F496E7465726D65646961727983
:1058A00048616E646C65000065646D61496E746585
:1058B000726D656469617279546F54785265674896
:1058C000616E646C650000007472616E736665726F
:1058D00000000000415353455254204552524F524C
:1058E000202220257320223A2066696C652022251B
:1058F0007322204C696E6520222564222066756E15
:105900006374696F6E206E616D652022257322209D
:105910000A0000002E2E2F647269766572732F665E
:10592000736C5F6461632E6300000000696E7374C2
:10593000616E6365203C2046534C5F46454154559B
:1059400052455F534F435F4441435F434F554E546D
:10595000000000004E554C4C20213D20636F6E66C8
:1059600069670000696E646578203C204441435FAC
:105970004441544C5F434F554E5400002E2E2F642B
:105980007269766572732F66736C5F646D616D7595
:10599000782E6300696E7374616E6365203C2046E7
:1059A000534C5F464541545552455F534F435F4406
:1059B0004D414D55585F434F554E54002E2E2F6488
:1059C0007269766572732F66736C5F647370692E8B
:1059D00063000000696E7374616E6365203C20464D
:1059E000534C5F464541545552455F534F435F44C6
:1059F0005350495F434F554E540000006D6173741E
:105A00006572436F6E6669670000000066616C73C3
:105A1000650000002E2E2F647269766572732F6602
:105A2000736C5F636C6F636B2E630000636F6E66F5
:105A3000696700002E2E2F647269766572732F6677
:105A4000736C5F636D702E6300000000696E737489
:105A5000616E6365203C2046534C5F46454154557A
:105A600052455F534F435F434D505F434F554E5434
:105A7000000000004E554C4C20213D20636F6E66A7
:105A8000696700002E2E2F647269766572732F6627
:105A9000736C5F636D742E6800000000686967684E
:105AA000436F756E74203C3D20434D545F4347481F
:105AB000315F50485F4D41534B0000006869676893
:105AC000436F756E740000006C6F77436F756E7472
:105AD000203C3D20434D545F43474C315F504C5F69
:105AE0004D41534B000000006C6F77436F756E742F
:105AF0000000000068696768436F756E74203C3D64
:105B000020434D545F434748325F53485F4D4153F4
:105B10004B0000006C6F77436F756E74203C3D2026
:105B2000434D545F43474C325F534C5F4D41534BA1
:105B3000000000002E2E2F647269766572732F6646
:105B4000736C5F636D742E6300000000696E737484
:105B5000616E6365203C2046534C5F464541545579
:105B600052455F534F435F434D545F434F554E542F
:105B700000000000627573436C6F636B5F487A20AE
:105B80003E3D20434D545F494E5445524D45444996
:105B90004154454652455155454E43595F384D484D
:105BA0005A0000006D6F64756C617465436F6E66BA
:105BB000696700002E2E2F647269766572732F66F6
:105BC000736C5F636C6F636B2E6300006D63677053
:105BD0006C6C30636C6B0000636F6E66696700000D
:105BE000546D7251000000002E2E2F64726976658C
:105BF00072732F66736C5F61646331362E630000CD
:105C0000696E7374616E6365203C2046534C5F4639
:105C10004541545552455F534F435F4144433136EC
:105C20005F434F554E5400004E554C4C20213D20B3
:105C3000636F6E66696700006368616E6E656C47CE
:105C4000726F7570203C204144435F5343315F4382
:105C50004F554E54000000002E2E2F647269766559
:105C600072732F66736C5F636C6F636B2E630000DF
:105C7000675F7874616C304672657100675F787435
:105C8000616C33324672657100000000546D722001
:105C90005376630049444C4500000000082008008A
:105CA0000D0A000025730D0A0000000025732573FE
:105CB00000000000626C75655F7461736B0000002A
:105CC000677265656E5F7461736B0000434C4F4390
:105CD0004B5F4765744D6367457874436C6B4672E0
:105CE000657100008002DC020005B8058007950898
